:101DC000112484B714BE837009F411D18CE080BF54
:101DD0008FE0F9D0BB9ABA9AC29A86E02CE094E0E0
:101DE0002FBD08B602FEFDCF98BFB398A8958150CD
:101DF000B9F7EE24FF2433E0332E222423942FED71
:101E0000522E9EEC492EC4D0813471F4C1D0182FCB
:101E1000DED0123811F485E005C0113811F484E0E9
:101E200001C083E0A5D0A1C0823411F484E103C0D5
:101E3000853419F485E0D3D098C0853541F4A8D015
:101E4000A82EA6D0B82EAA0CBB1C75018DC0863555
:101E500021F484E0C4D080E0E5CF843609F04AC0A4
:101E600097D096D0182F94D0C0E0D1E091D089932C
:101E70001C17E1F7ACD0F70137BEE89507B600FCB8
:101E8000FDCFE114F104E1F4C0900001D090010114
:101E90008090080190900901509200014092010148
:101EA0009092870180928601D0928501C092840130
:101EB0008CEF9FEFC80ED91EC0920801D092090185
:101EC000C701A0E0B1E06C9011967C90119712963A
:101ED000FC01030127BEE89511240296F1E0A0342D
:101EE000BF0789F725E0F70127BFE89507B600FC93
:101EF000FDCF3BC0843759F54BD04AD0082F48D08E
:101F000066D0E701102F209719F48091840114C046
:101F1000C130D10519F4809185010EC0C830D105BA
:101F200019F48091860108C0C930D10519F4809157
:101F3000870102C0FE01849121961AD0115019F731
:101F40000894E11CF11C0150E00EF11C0EC0853715
:101F500039F43DD08EE10CD083E90AD08BE062CF1A
:101F6000813511F488E02FD032D080E101D04BCF01
:101F70002AE08095089410F4C29802C0C29A00002A
:101F80001ED01DD01CD01BD086952A95A1F7089590
:101F9000B39828E080E0B199FECF11D010D00FD0D7
:101FA0000ED00DD08894B199089487952A9509F0A0
:101FB000F5CFA89504D003D002D0B398089590E24D
:101FC0009A95F1F7089598E191BD81BD0895E0DFFC
:101FD000803219F088E0F7DFFFCF84E1C9CF1F938B
:101FE000182FD6DF1150E9F7F2DF1F91089580E036
:081FF000EADFE4E0FF27099499
:021FFE000504D8
:0400000300001DC01C
:00000001FF
